:100000000C947B000C94A3000C94A3000C94A3000C
:100010000C94A3000C94A3000C94A3000C94A300D4
:100020000C94A3000C94A3000C94A3000C948B0AD2
:100030000C94A3000C94A3000C94A3000C94A300B4
:100040000C94410A0C94A3000C940F0A0C94E90937
:100050000C94A3000C94A3000C94A3000C94A30094
:100060000C94A3000C94A3004E414E494E495459A0
:10007000494E46CDCCCC3D0AD7233C17B7D1387773
:10008000CC2B329595E6241FB14F0A000020410089
:1000900000C84200401C4620BCBE4CCA1B0E5AAED3
:1000A000C59D740000000800020100000304070061
:1000B0000000000000000000000000250028002BC8
:1000C0000000000000240027002A000404040404A7
:1000D00004040402020202020203030303030301F5
:1000E00002040810204080010204081020010204CC
:1000F00008102000470B11241FBECFEFD8E0DEBF51
:10010000CDBF11E0A0E0B1E0E6EAF4E202C0059064
:100110000D92AE3CB107D9F722E0AEECB1E001C0E0
:100120001D92A73EB207E1F710E0CBE7D0E004C094
:100130002197FE010E942C12CA37D107C9F70E94ED
:10014000430C0C9451120C94000090E0FC01E1521D
:10015000FF4F249185539F4FFC018491882399F090
:1001600090E0880F991FFC01EF53FF4FA591B491C8
:10017000FC01E954FF4F859194918FB7F894EC916D
:10018000E22BEC938FBF08958F929F92AF92BF9214
:10019000FF920F931F93CF93DF93F090E2022BE037
:1001A0002F1508F44CC02091E40208E512E0021B70
:1001B000110927FD1395000F111F000F111F20912A
:1001C000E302C8E8D0E0C21BD10927FDD395CC0FCC
:1001D000DD1FCC0FDD1F4E010D2E000CAA08BB0841
:1001E0009801012E000C440B550B281939094A09B6
:1001F0005B09DC010E947D1024EB30E040E050E020
:100200000E945310820E931EA41EB51E8C169D06CE
:100210002CF0E801801691060CF4E4012297CC0F33
:10022000DD1F2FB7F8948F2D90E0FC01EE0FFF1F1C
:10023000E80FF91FEF57FD4FD283C1832FBFDF9126
:10024000CF911F910F91FF90BF90AF909F908F9093
:100250000895AF92BF92CF92DF92EF92FF920F93E9
:100260001F93CF93DF936C017B018B01040F151F4C
:10027000EB015E01AE18BF08C017D10759F06991B4
:10028000D601ED91FC910190F081E02DC601099518
:10029000892B79F7C501DF91CF911F910F91FF90C5
:1002A000EF90DF90CF90BF90AF900895FC01538DF9
:1002B000448D252F30E0842F90E0821B930B541740
:1002C00010F0CF96089501970895FC01918D828DCD
:1002D000981761F0A28DAE0FBF2FB11D5D968C9166
:1002E000928D9F5F9F73928F90E008958FEF9FEFA5
:1002F0000895FC01918D828D981731F0828DE80F61
:10030000F11D858D90E008958FEF9FEF0895FC011A
:10031000918D228D892F90E0805C9F4F821B9109E7
:100320008F739927089584EE91E00E94870121E060
:10033000892B09F420E0822F089580E090E0892B3A
:1003400029F00E94930181110C9400000895FC0192
:10035000A48DA80FB92FB11DA35ABF4F2C91848D26
:1003600090E001968F739927848FA689B7892C9383
:10037000A089B1898C91837080648C93938D848DD6
:10038000981306C00288F389E02D80818F7D8083D9
:100390000895EF92FF920F931F93CF93DF93EC0199
:1003A00081E0888F9B8D8C8D98131AC0E889F9891C
:1003B000808185FF15C09FB7F894EE89FF8960831F
:1003C000E889F98980818370806480839FBF81E0A0
:1003D00090E0DF91CF911F910F91FF90EF900895E2
:1003E000F62E0B8D10E00F5F1F4F0F731127E02EBD
:1003F0008C8D8E110CC00FB607FCFACFE889F989F5
:10040000808185FFF5CFCE010E94A701F1CFEB8D52
:10041000EC0FFD2FF11DE35AFF4FF0829FB7F894C8
:100420000B8FEA89FB8980818062CFCFCF93DF93E6
:10043000EC01888D8823B9F0AA89BB89E889F989FC
:100440008C9185FD03C0808186FD0DC00FB607FC31
:10045000F7CF8C9185FFF2CF808185FFEDCFCE0164
:100460000E94A701E9CFDF91CF91089590E0FC01B0
:10047000ED55FF4F2491FC01E152FF4F3491FC01F7
:10048000E553FF4FE491EE23C9F0222339F02330E6
:1004900001F1A8F4213019F1223029F1F0E0EE0F3A
:1004A000FF1FE954FF4FA591B4918FB7F894EC91D9
:1004B000611126C030953E233C938FBF08952730AD
:1004C000A9F02830C9F0243049F7809180008F7D51
:1004D00003C0809180008F7780938000DFCF84B548
:1004E0008F7784BDDBCF84B58F7DFBCF8091B0004B
:1004F0008F778093B000D2CF8091B0008F7DF9CFFD
:100500003E2BDACF3FB7F8948091E0019091E10162
:10051000A091E201B091E30126B5A89B05C02F3F51
:1005200019F00196A11DB11D3FBFBA2FA92F982F19
:100530008827BC01CD01620F711D811D911D42E014
:10054000660F771F881F991F4A95D1F708958F92DC
:100550009F92AF92BF92CF92DF92EF92FF926B0188
:100560007C010E9482024B015C01C114D104E104B0
:10057000F104B9F00E948202681979098A099B097D
:10058000683E73408105910580F321E0C21AD108CD
:10059000E108F10888EE880E83E0981EA11CB11CCA
:1005A000E4CFFF90EF90DF90CF90BF90AF909F90FF
:1005B0008F9008950F931F93CF93DF93EC018B01DE
:1005C00088859985029749F46130710509F436C030
:1005D0004CF560E00115110591F188859985049726
:1005E00049F40130110509F451C09CF501151105BC
:1005F00009F43BC088859985059709F0C5C00A3084
:10060000110508F0C1C0F801E85FFC4F0C942C12F2
:100610005A036403720384039C039E03A403AE0382
:10062000BC03C2036230710591F060E00330110534
:10063000A1F68C850E94360260E005C061E08C85E1
:100640000E94360261E08E850E943602C6CF61E0CC
:10065000F0CF0230110501F10330110559F661E0C8
:100660008C850E94360260E01CC061E08C850E948F
:10067000360260E08E850E94360261E088890E9421
:10068000360260E08A890E943602B4CF60E08C8531
:100690000E94360261E0EECF60E08C850E94360257
:1006A00061E08E850E94360260E088890E943602F1
:1006B00061E0E8CF60E08C850E94360261E08E85C3
:1006C0000E94360261E009C060E08C850E9436021B
:1006D00061E08E850E94360260E088890E943602C1
:1006E00060E00DC060E08C850E94360261E08E857E
:1006F0000E94360260E088890E94360261E08A89A1
:100700000E94360261E011C060E08C850E943602D2
:1007100061E08E850E94360260E088890E94360280
:1007200061E08A890E94360260E08C89DF91CF9176
:100730001F910F910C94360261E0E7CF61E08C8548
:100740000E94360260E0E5CF61E08C850E943602AF
:1007500060E08E850E94360261E0DFCF61E08C852B
:100760000E94360260E08E850E94360261E0888930
:100770000E94360260E0D5CF61E08C850E9436028F
:1007800060E09DCF60E0F9CFDF91CF911F910F9195
:1007900008954F925F926F927F928F929F92AF9245
:1007A000BF92CF92DF92EF92FF920F931F93CF935E
:1007B000DF93EC018B0177FF04C000271127061B94
:1007C000170B161617060CF04AC081E090E09983CB
:1007D000888384E0E82EF12C9AE0C92ED12C0115F3
:1007E000110509F44EC00E9482028E889F88A88C51
:1007F000B98C2B013C01481859086A087B088A808B
:100800009B80AC80BD80481459046A047B0438F393
:100810006E8B7F8B888F998F8A859B852881398104
:100820002130310511F501969B878A872E813F8102
:100830008217930711F41B861A86015011098A85C5
:100840009B8528853985B6012530310509F0B7012A
:100850000E941812BC01CE010E94DA02C0CF672BA1
:1008600009F4B7CF19821882B4CF892B21F48E8175
:100870009F819B878A878A859B8501979B878A872B
:10088000DCCFDF91CF911F910F91FF90EF90DF9020
:10089000CF90BF90AF909F908F907F906F905F9020
:1008A0004F900895FC0101900020E9F73197AF01C6
:1008B000481B590BBC0184EE91E00C9429018F92E6
:1008C0009F92AF92BF920F931F93CF93DF93CDB7B9
:1008D000DEB7A1970FB6F894DEBF0FBECDBF19A249
:1008E000423008F44AE08E010F5D1F4F842E912C98
:1008F000B12CA12CA50194010E94BC10E62FB901D6
:10090000CA01EA30F4F4E05DD801EE938D01232BA7
:10091000242B252B79F790E080E0109719F0CD017A
:100920000E945204A1960FB6F894DEBF0FBECDBF51
:10093000DF91CF911F910F91BF90AF909F908F90BB
:100940000895E95CE1CFCF92DF92EF92FF92CF93CF
:10095000DF936B017C016DE284EE91E00E94C9019E
:10096000EC0166277727CB016C197D098E099F0959
:100970004AE00E945F048C0F9D1FDF91CF91FF9092
:10098000EF90DF90CF900895CF93DF930E945204B1
:10099000EC0182E191E00E9452048C0F9D1FDF91D7
:1009A000CF91089561E08DE00E94360284E190E0ED
:1009B0000E94C40062E370E080E090E00C94A70223
:1009C00060E08DE00E9436028CE390E00E94C4005B
:1009D00062E370E080E090E00C94A7020C94520473
:1009E0004F925F926F927F928F929F92AF92BF923F
:1009F000CF92DF92EF92FF920F931F93CF936B01F1
:100A00007C01742EAC019B010E940712882399F08F
:100A100085E191E0CF911F910F91FF90EF90DF90D2
:100A2000CF90BF90AF909F908F907F906F905F908E
:100A30004F900C94520446015701E894B7F82FEFF9
:100A40003FEF4FE75FE7C501B4010E940712811134
:100A50000DC02FEF3FEF4FE75FE7C501B4010E94E4
:100A60002C0F18161CF489E191E0D4CF2FEF3FEF43
:100A70004FE75FE4C701B6010E94021218161CF48A
:100A80008DE191E0C7CF2FEF3FEF4FE75FECC7015C
:100A9000B6010E942C0F87FDF3CF20E030E0A901C2
:100AA000C701B6010E942C0F10E000E087FF0AC0CA
:100AB0006DE284EE91E00E94C9018C01F7FAF09496
:100AC000F7F8F094C0E060E070E080E09FE37C160F
:100AD00041F020E030E040E251E40E945A11CF5F43
:100AE000F6CFA70196010E94EE102B013C010E9457
:100AF000D3114B015C014AE00E945F047C01E00ECF
:100B0000F11ECC23C1F1C501B4010E94310F9B013C
:100B1000AC01C301B2010E94ED104B015C016EE219
:100B200084EE91E00E94C901E80EF91EC15018F14F
:100B300020E030E040E251E4C501B4010E94920F90
:100B40002B013C010E94D3114B01B12CA12C4AE096
:100B5000C501B4010E945F04E80EF91EC501B4018D
:100B60000E94310F9B01AC01C301B2010E94ED1044
:100B70004B015C01DBCFC701CF911F910F91FF901B
:100B8000EF90DF90CF90BF90AF909F908F907F902D
:100B90006F905F904F90089542E00C94F004CF93D3
:100BA000DF93CDB7DEB7C855D2400FB6F894DEBF9D
:100BB0000FBECDBF68EC70E080E090E00E94A7021D
:100BC00000E010E0312C212C02C0102F01E084EE57
:100BD00091E00E94870118161906CCF784EE91E087
:100BE0000E9465018A3019F08D3009F0C2C32114CA
:100BF000310409F4B9C3E1E0F0E0EC0FFD1FE20DB0
:100C0000F31D108290E080E08C010F5F1F4FE1E048
:100C1000F0E0EC0FFD1FE80FF91F2081273481F071
:100C200034F4243409F012C30E94D2040FC32D34CB
:100C300009F412C3253509F009C30E94E00406C374
:100C40009C012E5F3F4FC55BDD4F39832883CB541A
:100C5000D240E1E0F0E0EC0FFD1FE00FF11F8081DA
:100C6000CF5FDD4F8883C150D240CE5FDD4F188209
:100C7000C250D240CE018F5F9D4F0E94950D0297CA
:100C800008F0DEC268E570E0EE24E394F12CEC0E8F
:100C9000FD1EC55BDD4F88819981CB54D240E80EA3
:100CA000F91EC7010E9446128C0169E570E0C70178
:100CB0000E944612009709F0AEC1C80101960E9439
:100CC000910D162F072FCB5BDD4F8883C554D24083
:100CD000CA5BDD4F9883C654D2409091D201C95B64
:100CE000DD4F9883C754D240A091D301C85BDD4F3C
:100CF000A883C854D240B091D401C75BDD4FB883FC
:100D0000C954D240E091D501C65BDD4FE883CA5497
:100D1000D24020E030E040E252E4612F702FCB5B04
:100D2000DD4F8881C554D240CA5BDD4F9881C654DF
:100D3000D2400E94021287FFC2C120E030E0A90128
:100D4000612F702FCB5BDD4F8881C554D240CA5BC9
:100D5000DD4F9881C654D2400E942C0F18160CF01B
:100D6000B5C1812E902ECB5BDD4FA880C554D240FB
:100D7000CA5BDD4FB880C654D24020E030E040E28C
:100D800052E4C95BDD4F6881C754D240C85BDD4F78
:100D90007881C854D240C75BDD4F8881C954D240A6
:100DA000C65BDD4F9881CA54D2400E94021287FF71
:100DB00092C120E030E0A901C95BDD4F6881C754D2
:100DC000D240C85BDD4F7881C854D240C75BDD4F4D
:100DD0008881C954D240C65BDD4F9881CA54D24045
:100DE0000E942C0F18160CF07DC1C95BDD4FC88026
:100DF000C754D240C85BDD4FD880C854D240C75BCF
:100E0000DD4FE880C954D240C65BDD4FF880CA543C
:100E1000D24020E030E040EC50E4B401C5010E9433
:100E2000920F0E94CC11072E000C880B990B0E9488
:100E3000330FC35BDD4F688379838A839B83CD54F3
:100E4000D24020E030E040EC50E4B601C7010E94FF
:100E5000920F0E94CC11072E000C880B990B0E9458
:100E6000330FCF5ADD4F688379838A839B83C155C3
:100E7000D2404090AA025090AB026090AC027090B9
:100E8000AD028090A6029090A702A090A802B09018
:100E9000A902A3019201C35BDD4F688179818A8138
:100EA0009B81CD54D2400E94ED106B017C0120E06B
:100EB00030E0A9010E94021218160CF018C1C701F7
:100EC000B6010E94CC11CF5BDD4F688379838A83A2
:100ED0009B83C154D240A5019401CF5ADD4F688154
:100EE00079818A819B81C155D2400E94ED106B01AE
:100EF0007C0120E030E0A9010E94021218160CF0DB
:100F0000FAC0C701B6010E94CC116B017C01A3019C
:100F10009201C35BDD4F688179818A819B81CD54C9
:100F2000D2400E94021218160CF0E9C081E090E055
:100F3000CB5ADD4F99838883C555D240A5019401D2
:100F4000CF5ADD4F688179818A819B81C155D2401A
:100F50000E94021218160CF0DBC0E1E0F0E0C95A62
:100F6000DD4FF983E883C755D240CF5BDD4F8881E1
:100F70009981AA81BB81C154D240812C912C54010A
:100F8000412C512C3201C816D906EA06FB060CF09A
:100F9000C8C0CF5BDD4F88819981AA81BB81C154D4
:100FA000D240481659066A067B060CF0F3C0CB5AAD
:100FB000DD4F68817981C555D2408EEA92E00E946A
:100FC000C9038C0C9D1CAE1CBF1CCF5BDD4F888100
:100FD0009981AA81BB81C154D24088169906AA067C
:100FE000BB0674F0881A990AAA0ABB0AC95ADD4FCF
:100FF00068817981C755D24088EC92E00E94C9038C
:1010000060E070E0CB010E94A7029FEF491A590AE5
:10101000690A790ABECF01960115110549F50E94AA
:10102000910DC95BDD4F6883C754D240C85BDD4F6B
:101030007883C854D240C75BDD4F8883C954D240FF
:10104000C65BDD4F9883CA54D2401091CE01009107
:10105000CF01F091D001CB5BDD4FF883C554D24076
:101060002091D101CA5BDD4F2883C654D24051CEB6
:101070000E94910DC95BDD4F6883C754D240C85BA5
:10108000DD4F7883C854D240C75BDD4F8883C95495
:10109000D240C65BDD4F9883CA54D240C801019646
:1010A0000E94910D162F072FCB5BDD4F8883C5540F
:1010B000D240CA5BDD4F9883C654D2402ACE812CE1
:1010C000912C20E2A22E32E4B32E57CE812C912C0B
:1010D000A12CB12C52CEC12CD12C80E2E82E92E46E
:1010E000F92E97CEC12CD12CE12CF12C92CEC70138
:1010F000B6019058E6CEC701B601905804CFAFEFC5
:10110000BFEFCB5ADD4FB983A883C555D24016CF68
:101110002FEF3FEFC95ADD4F39832883C755D2409F
:1011200024CF4C145D046E047F04A4F5C95ADD4F2E
:1011300068817981C755D24088EC92E00E94C9034A
:10114000CF5BDD4F88819981AA81BB81C154D24098
:10115000880E991EAA1EBB1E8C149D04AE04BF04EB
:1011600074F08C189D08AE08BF08CB5ADD4F68811B
:101170007981C555D2408EEA92E00E94C90360E0B1
:1011800070E0CB010E94A7029FEF491A590A690A31
:10119000790AC7CF62E370E080E090E00E94A70286
:1011A000C35BDD4F88819981AA81BB81CD54D24038
:1011B0008093AA029093AB02A093AC02B093AD02CD
:1011C000CF5ADD4F88819981AA81BB81C155D24018
:1011D0008093A6029093A702A093A802B093A902BD
:1011E000812F902FCB5BDD4FA881C554D240CA5BC5
:1011F000DD4FB881C654D2408093CE019093CF0189
:10120000A093D001B093D101C95BDD4F8881C75451
:10121000D240C85BDD4F9881C854D240C75BDD4FD8
:10122000A881C954D240C65BDD4FB881CA54D240B0
:101230008093D2019093D301A093D401B093D501B0
:10124000C55BDD4F08811981CB54D24002151305CF
:101250000CF08AC0C801D8CCE1E0F0E0EC0FFD1F33
:10126000E00FF11F2081CF5FDD4F2883C150D240B6
:10127000E3E0F0E0EC0FFD1FE80FF91F2081CE5FE7
:10128000DD4F2883C250D2408C010C5F1F4FA4E079
:10129000B0E0AC0FBD1F8A0F9B1FFC018081CD5FAA
:1012A000DD4F8883C350D240CC5FDD4F1882C450DD
:1012B000D240CE018F5F9D4F0E94950D82379105E0
:1012C00039F18C32914009F045C063E570E081E06E
:1012D00090E08C0F9D1F800F911F0E944612019677
:1012E0000E94910D6B017C0120E030E040EF51E461
:1012F0000E942C0F882309F497CC20E030E048E4CA
:1013000052E4C701B6010E942C0F81119FCF95CCEA
:1013100081E291E00E94EE046091CE017091CF01D4
:101320008091D0019091D1010E94CC058AE391E097
:101330000E94EE046091D2017091D3018091D4019A
:101340009091D50142E00E94F00482E191E00E9478
:1013500052047CCF84E491E00E94EE04CE018F5FC2
:101360009D4F0E94C40472CF8FE591E00E94C40497
:1013700027CC111102C0002329F0893209F027CCB3
:1013800010E025CC8132E4F38F32D1F311E08832C2
:1013900009F41DCC8B3309F418CC2FEF221621E071
:1013A00032062CF082E691E00E94C404E9CF91015C
:1013B0002F5F3F4F9FE9980FE1E0F0E0EC0FFD1F3A
:1013C000E20DF31D9A3108F48052808310E0190178
:1013D000FECB1F920F920FB60F9211242F933F93C3
:1013E0004F935F936F937F938F939F93AF93BF932D
:1013F000EF93FF9384EE91E00E94A701FF91EF919C
:10140000BF91AF919F918F917F916F915F914F911C
:101410003F912F910F900FBE0F901F9018951F9224
:101420000F920FB60F9211242F938F939F93EF93E8
:10143000FF93E091F401F091F5018081E091FA01D0
:10144000F091FB0182FD1BC090818091FD018F5FB7
:101450008F732091FE01821741F0E091FD01F0E0D1
:10146000EC51FE4F958F8093FD01FF91EF919F917D
:101470008F912F910F900FBE0F901F901895808124
:10148000F4CF1F920F920FB60F9211242F933F9318
:101490008F939F93AF93BF938091DC019091DD0177
:1014A000A091DE01B091DF013091DB0123E0230F39
:1014B0002D3758F50196A11DB11D2093DB018093B6
:1014C000DC019093DD01A093DE01B093DF018091F8
:1014D000E0019091E101A091E201B091E301019658
:1014E000A11DB11D8093E0019093E101A093E20161
:1014F000B093E301BF91AF919F918F913F912F9155
:101500000F900FBE0F901F90189526E8230F02969C
:10151000A11DB11DD2CF1F920F920FB60F921124B1
:101520002F933F934F935F936F937F938F939F93EB
:10153000AF93BF93CF93DF93EF93FF938091DA0143
:10154000C091A502D0E087FF24C0109285001092C0
:1015500084008091DA018F5F8093DA018091DA0153
:10156000082E000C990B8C179D0724F48091DA014A
:101570008C30C4F180918400909185000496803471
:101580009C4908F47AC0809184009091850004966B
:1015900076C08091DA01082E000C990B8C179D07FC
:1015A000C4F6E091DA018E2FEE0F990BFC01EE0FDD
:1015B000FF1FE80FF91FEF57FD4F808186FFC9CF4E
:1015C000E091DA018E2FEE0F990BFC01EE0FFF1F59
:1015D000E80FF91FEF57FD4F808160E08F730E9485
:1015E0003602B7CF2091840030918500E091DA0176
:1015F0008E2FEE0F990BFC01EE0FFF1FE80FF91F66
:10160000EF57FD4F81819281820F931F9093890044
:1016100080938800E091DA018E2FEE0F990BFC0188
:10162000EE0FFF1FE80FF91FEF57FD4F808186FF78
:1016300011C0E091DA018E2FEE0F990BFC01EE0F35
:10164000FF1FE80FF91FEF57FD4F808161E08F7397
:101650000E943602FF91EF91DF91CF91BF91AF9140
:101660009F918F917F916F915F914F913F912F91BA
:101670000F900FBE0F901F90189580E49CE99093F7
:101680008900809388008FEF8093DA01E3CF0F9376
:101690001F93CF93DF931092E7011092E60188EE3B
:1016A00093E0A0E0B0E08093E8019093E901A0937B
:1016B000EA01B093EB0184E091E09093E50180931F
:1016C000E40185EC90E09093F1018093F00184ECCB
:1016D00090E09093F3018093F20180EC90E090937E
:1016E000F5018093F40181EC90E09093F7018093F1
:1016F000F60182EC90E09093F9018093F80186EC7A
:1017000090E09093FB018093FA011092FD011092FA
:10171000FE011092FF01109200028091A5028C3010
:1017200008F0ADC091E0980F9093A5028093E2027B
:1017300090E0FC01EE0FFF1FE80FF91FEF57FD4F80
:1017400088EB9BE0928381831092D3021092D202A5
:101750001092C9021092C8021092DE021092DF02AB
:101760001092E0021092E10205E010E01093CF0227
:101770000093CE0282E090E09093D5028093D40251
:1017800083E090E09093D7028093D602C4E0D0E04B
:10179000D093D902C093D8021093DB020093DA02EF
:1017A00082E00E94A5008091D6020E94A50080914F
:1017B000D8020E94A5008091DA020E94A500109232
:1017C000DD021092DC02D093D102C093D0021092BD
:1017D000B9021092B8021092AF021092AE021092AB
:1017E000C4021092C5021092C6021092C702109352
:1017F000B5020093B40288E090E09093BB0280931E
:10180000BA0289E090E09093BD028093BC028AE026
:1018100090E09093BF028093BE028BE090E09093A3
:10182000C1028093C00288E00E94A5008091BC02A2
:101830000E94A5008091BE020E94A5008091C00276
:101840000E94A5001092C3021092C202D093B70268
:10185000C093B6021092AA021092AB021092AC0290
:101860001092AD021092A6021092A7021092A80246
:101870001092A902DF91CF911F910F9108958FEFE0
:101880008093E20261CF789484B5826084BD84B590
:10189000816084BD85B5826085BD85B5816085BD6B
:1018A00080916E00816080936E0010928100809123
:1018B00081008260809381008091810081608093AB
:1018C0008100809180008160809380008091B100D0
:1018D00084608093B1008091B00081608093B000FB
:1018E00080917A00846080937A0080917A0082608F
:1018F00080937A0080917A00816080937A00809151
:101900007A00806880937A001092C100E091F4011F
:10191000F091F50182E08083E091F001F091F10116
:101920001082E091F201F091F3018FEC808310922C
:10193000FC01E091F801F091F90186E08083E091EB
:10194000F601F091F701808180618083E091F601DA
:10195000F091F701808188608083E091F601F09139
:10196000F701808180688083E091F601F091F701B2
:1019700080818F7D80838091E2028C3008F050C09E
:1019800086E00E94A5008091E202282F30E0F90154
:10199000EE0FFF1FE20FF31FEF57FD4F9081907C7A
:1019A000966090831092E3021092E4022CE0622F82
:1019B0000E940C12829FB001112430E020E0AB01A4
:1019C000420F531FFA01EE0FFF1FE40FF51FEF57F1
:1019D000FD4F908196FD16C02F5F3F4F2C30310593
:1019E00071F781110FC01092800082E08093810016
:1019F0001092850010928400B19A80916F008260ED
:101A000080936F00E091E2028E2F90E0FC01EE0FD8
:101A1000FF1FE80FF91FEF57FD4F8081806480831F
:101A20008CE390E00E94C40068EC70E080E090E0FD
:101A30000E94A7028DE00E94A5002091B40230917F
:101A4000B502032E000C440B550BC12C87E8D82E91
:101A500083E9E82E83E0F82EC701B6010E945310F7
:101A60009AEF892E912CA12CB12CCA01B901A501A4
:101A700094010E9453102093B0023093B10240931E
:101A8000B2025093B3022091CE023091CF02032EC6
:101A9000000C440B550BC701B6010E945310CA013C
:101AA000B901A50194010E9453102093CA023093FA
:101AB000CB024093CC025093CD028EE791E00E947E
:101AC000C40482EA91E00E94EE0460E070E0CB0181
:101AD0000E94CC0583EB91E00E94EE0460E070E090
:101AE00080E292E40E94CC0588EB91E00E94C4045D
:101AF0008DEB91E00E94EE0460E070E0CB010E946B
:101B0000CC0583EB91E00E94EE0460E070E080E29F
:101B100092E40E94CC0588EB91E00E94C4040E94EC
:101B2000CF05662777270C94BB0DFC0188279927E2
:101B3000E89421912032E9F3293010F02E30C8F3D7
:101B40002B3241F02D3239F4689404C00E94B30D59
:101B5000820F911D219120532A30C0F31EF49095DD
:101B600081959F4F08957AE0979F902D879F802DB4
:101B7000910D11240895B0E0A0E0E1ECFDE00C949B
:101B80008B105C017B016115710519F0DB018D93F0
:101B90009C9385010F5F1F4FF501D0818D2F90E041
:101BA0000E940B0F6C01892BB9F5DD32B9F50F5F7F
:101BB0001F4FD5011196DC91C1E05801F1E0AF1A39
:101BC000B10843E050E060E770E0C5010E94140FE7
:101BD000892B69F5680182E0C80ED11C45E050E010
:101BE0006BE670E0C6010E94140F892B21F4680196
:101BF00097E0C90ED11CE114F10419F0D701CD9280
:101C0000DC9260E070E080E89FEFC111FFC060E00F
:101C100070E080E89FE7FAC05801BBCFDB3229F4BF
:101C200085010E5F1F4FF501D181C0E0C6CF43E0B3
:101C300050E068E670E0C5010E94140F892BE9F0BE
:101C4000F80110E000E020E030E0A9015F01B0ED14
:101C50008B2E8D0E89E08815C8F19C2E689491F822
:101C60008C2F8870C2FF16C0811102C00F5F1F4FFA
:101C70003196D501DC91C92DE9CFE114F10429F0A9
:101C80000E5F1F4FF7011183008360E070E080EC6E
:101C90009FE7BCC0882311F001501109A5E0B0E016
:101CA0000E9472109B01AC01220F331F441F551F6D
:101CB000280D311D411D511D283999E93907490762
:101CC00099E15907A8F2C6609C2ED2CFAEEF8A12D6
:101CD00006C0C3FD3CC09C2E689493F8C9CFDF7D3D
:101CE000D534A9F580818D3239F4C061DF011296B7
:101CF000818162E070E006C0DF018B32C1F3119692
:101D000061E070E080535D01A61AB70A8A30F8F4EA
:101D1000E0E8CE16ECE0DE065CF4B601660F771F55
:101D2000660F771FC60ED71ECC0CDD1CC80ED11C4B
:101D30005D01FFEFAF1ABF0A8C9180538A30A8F182
:101D4000C4FF03C0D194C194D1080C0D1D1DC1FF67
:101D500009C0E114F10431F081E0A81AB108D701FB
:101D6000AD92BC92CA01B9010E94310FC370C33059
:101D700009F490584B015C0120E030E0A9010E9479
:101D80002C0F882309F440C0CFE9D0E017FF05C02D
:101D9000119501951109C7E8D0E06E01B8E1CB1AA1
:101DA000D10880E2E82EF12C0FC0D501B1CFFE01A1
:101DB00025913591459154910E191F09C501B40122
:101DC0000E94920F4B015C01D501C4010E151F0545
:101DD00074F72497F594E794CC16DD06A9F78A2FBB
:101DE000880F8B2F881F8F3F49F020E030E0A9013A
:101DF000C501B4010E942C0F811106C082E290E05F
:101E00009093E6028093E502C501B401CDB7DEB739
:101E1000ECE00C94A71091110C94FF0F803219F094
:101E200089508550C8F70895FB01DC0141505040AE
:101E300088F08D9181341CF08B350CF4805E6591B7
:101E400061341CF06B350CF4605E861B611171F31C
:101E5000990B0895881BFCCF0E946E0F08F481E057
:101E60000895E89409C097FB3EF49095809570958D
:101E700061957F4F8F4F9F4F9923A9F0F92F96E9D6
:101E8000BB279395F695879577956795B795F1114B
:101E9000F8CFFAF4BB0F11F460FF1BC06F5F7F4FE8
:101EA0008F4F9F4F16C0882311F096E911C07723FA
:101EB00021F09EE8872F762F05C0662371F096E803
:101EC000862F70E060E02AF09A95660F771F881FD2
:101ED000DAF7880F9695879597F90895990F000876
:101EE000550FAA0BE0E8FEEF16161706E807F907EC
:101EF000C0F012161306E407F50798F0621B730B87
:101F0000840B950B39F40A2661F0232B242B252B07
:101F100021F408950A2609F4A140A6958FEF811DAA
:101F2000811D08950E94A50F0C9419100E940B109A
:101F300038F00E94121020F0952311F00C9402103A
:101F40000C94081011240C944D100E942A1070F368
:101F5000959FC1F3950F50E0551F629FF001729F4E
:101F6000BB27F00DB11D639FAA27F00DB11DAA1F5D
:101F7000649F6627B00DA11D661F829F2227B00DAA
:101F8000A11D621F739FB00DA11D621F839FA00D35
:101F9000611D221F749F3327A00D611D231F849F85
:101FA000600D211D822F762F6A2F11249F575040DC
:101FB0009AF0F1F088234AF0EE0FFF1FBB1F661F57
:101FC000771F881F91505040A9F79E3F510580F020
:101FD0000C9402100C944D105F3FE4F3983ED4F340
:101FE000869577956795B795F795E7959F5FC1F7C4
:101FF000FE2B880F911D9695879597F9089599273F
:102000008827089597F99F6780E870E060E0089559
:102010009FEF80EC089500240A9416161706180600
:102020000906089500240A941216130614060506DC
:102030000895092E0394000C11F4882352F0BB0F6D
:1020400040F4BF2B11F460FF04C06F5F7F4F8F4FD0
:102050009F4F089557FD9058440F551F59F05F3F0B
:1020600071F04795880F97FB991F61F09F3F79F0BA
:1020700087950895121613061406551FF2CF46953C
:10208000F1DF08C0161617061806991FF1CF8695BE
:102090007105610508940895E894BB2766277727A2
:1020A000CB0197F90895052E97FB1EF400940E942A
:1020B0006A1057FD07D00E94BC1007FC03D04EF4F5
:1020C0000C946A1050954095309521953F4F4F4F95
:1020D0005F4F089590958095709561957F4F8F4FD4
:1020E0009F4F08950E94DE10A59F900DB49F900D04
:1020F000A49F800D911D11240895B7FF0C947210B8
:102100000E947210821B930B08952F923F924F9260
:102110005F926F927F928F929F92AF92BF92CF9277
:10212000DF92EF92FF920F931F93CF93DF93CDB780
:10213000DEB7CA1BDB0B0FB6F894DEBF0FBECDBFF8
:1021400009942A88398848885F846E847D848C84C9
:102150009B84AA84B984C884DF80EE80FD800C81D2
:102160001B81AA81B981CE0FD11D0FB6F894DEBFB5
:102170000FBECDBFED010895A1E21A2EAA1BBB1B15
:10218000FD010DC0AA1FBB1FEE1FFF1FA217B30743
:10219000E407F50720F0A21BB30BE40BF50B661F59
:1021A000771F881F991F1A9469F76095709580951D
:1021B00090959B01AC01BD01CF010895A29FB00194
:1021C000B39FC001A39F700D811D1124911DB29F6B
:1021D000700D811D1124911D08955058BB27AA2709
:1021E0000E9405110C9419100E940B1038F00E94E7
:1021F000121020F039F49F3F19F426F40C940810C3
:102200000EF4E095E7FB0C940210E92F0E942A10CF
:1022100058F3BA17620773078407950720F079F41B
:10222000A6F50C944C100EF4E0950B2EBA2FA02DB1
:102230000B01B90190010C01CA01A0011124FF2773
:10224000591B99F0593F50F4503E68F11A16F0406E
:10225000A22F232F342F4427585FF3CF469537956D
:102260002795A795F0405395C9F77EF41F16BA0B32
:10227000620B730B840BBAF09150A1F0FF0FBB1FE0
:10228000661F771F881FC2F70EC0BA0F621F731F29
:10229000841F48F4879577956795B795F7959E3F86
:1022A00008F0B0CF9395880F08F09927EE0F979517
:1022B000879508950E946E110C9419100E941210B7
:1022C00058F00E940B1040F029F45F3F29F00C9465
:1022D000021051110C944D100C9408100E942A10F9
:1022E00068F39923B1F3552391F3951B550BBB2745
:1022F000AA2762177307840738F09F5F5F4F220F8A
:10230000331F441FAA1FA9F335D00E2E3AF0E0E880
:1023100032D091505040E695001CCAF72BD0FE2FCA
:1023200029D0660F771F881FBB1F2617370748075E
:10233000AB07B0E809F0BB0B802DBF01FF27935816
:102340005F4F3AF09E3F510578F00C9402100C94C8
:102350004D105F3FE4F3983ED4F3869577956795EB
:10236000B795F7959F5FC9F7880F911D969587954B
:1023700097F90895E1E0660F771F881FBB1F62176A
:1023800073078407BA0720F0621B730B840BBA0B28
:10239000EE1F88F7E09508950E94D3116894B1115B
:1023A0000C944D1008950E94321088F09F5798F0B9
:1023B000B92F9927B751B0F0E1F0660F771F881F4A
:1023C000991F1AF0BA95C9F714C0B13091F00E9464
:1023D0004C10B1E008950C944C10672F782F88278B
:1023E000B85F39F0B93FCCF3869577956795B3958B
:1023F000D9F73EF490958095709561957F4F8F4FFA
:102400009F4F08950E946E0F08F48FEF08950E9469
:102410006E0F880B990B0895991B79E004C0991FE2
:10242000961708F0961B881F7A95C9F7809508952E
:1024300097FB072E16F4009407D077FD09D00E9471
:10244000321207FC05D03EF4909581959F4F089578
:10245000709561957F4F0895EE0FFF1F0590F491E1
:10246000E02D0994AA1BBB1B51E107C0AA1FBB1F8B
:10247000A617B70710F0A61BB70B881F991F5A9510
:10248000A9F780959095BC01CD010895FC0181913B
:10249000861721F08823D9F7992708953197CF011E
:0624A0000895F894FFCF3F
:1024A60000000000C90129015601160287016501D5
:1024B60079010D0A006E616E00696E66006F7666C0
:1024C600004162736F6C75746520706F736974690F
:1024D6006F6E203A2058203D200020202D202059C4
:1024E600203D2000436F6D6D616E64206E6F742019
:1024F6007265636F676E697A6564203A204D006F76
:102506006B004552524F52202D206C696E65427504
:1025160066666572206F766572666C6F77004D69C8
:102526006E6920434E4320506C6F7474657220614F
:102536006C69766520616E64206B69636B696E6792
:102546002100582072616E67652069732066726F7C
:102556006D200020746F2000206D6D2E00592072B2
:0E256600616E67652069732066726F6D2000DC
:00000001FF
